:020000000C945E
:1000020033000C9400000C9400000C9400000C943B
:1000120000000C9400000C9400000C9400000C945E
:1000220000000C9400000C9400000C9400000C944E
:1000320000000C9400000C9400000C9400000C943E
:1000420000000C9400000C9400000C9400000C942E
:1000520000001027E80364000A00010000100001FC
:1000620010000100F894EE27ECBBF1E0FBBFEBBF00
:10007200E5BFF8E1F1BDE1BD8DE0A2E0BB27ED9364
:100082008A95E9F780E098E0A0E6ED930197E9F719
:10009200EFE5EDBFE8E0EEBFC0E6D2E00C94510020
:1000A200E0E0EBBBEABBE8BBEFEFE7BBE0E0E5BBC0
:1000B200E4BBE2BBE1BBE3BFE2BFECBFEFBDEEBD21
:1000C200EDBDECBDE7BDE6BDEBBDEABDE9BDE8BDFA
:1000D200E2BDE5BDE4BDE3BDE5BFE4BFE9BFEBB909
:1000E200E0E1EAB9E6E8E0BDE0E0E0BDE3E3E9B97A
:1000F200E0E8E8B9E0E0E0BF17D01E2F113311F4B9
:10010200C19A0EC0123319F4C198C29A0AC01333AD
:1001120021F4C198C298C39A05C0103319F4C1984A
:10012200C298C398E9CFFFCF5F9BFECFECB1089591
:00000001FF
